{
  "_format": "hh-sol-artifact-1",
  "contractName": "MPC",
  "sourceName": "contracts/MPC.sol",
  "abi": [
    {
      "inputs": [
        {
          "internalType": "address payable",
          "name": "reciever",
          "type": "address"
        }
      ],
      "stateMutability": "payable",
      "type": "constructor"
    },
    {
      "inputs": [
        {
          "internalType": "uint256",
          "name": "amount",
          "type": "uint256"
        },
        {
          "internalType": "bytes",
          "name": "signedMessage",
          "type": "bytes"
        }
      ],
      "name": "claimPayment",
      "outputs": [],
      "stateMutability": "nonpayable",
      "type": "function"
    },
    {
      "inputs": [],
      "name": "recipient",
      "outputs": [
        {
          "internalType": "address payable",
          "name": "",
          "type": "address"
        }
      ],
      "stateMutability": "view",
      "type": "function"
    },
    {
      "inputs": [],
      "name": "sender",
      "outputs": [
        {
          "internalType": "address payable",
          "name": "",
          "type": "address"
        }
      ],
      "stateMutability": "view",
      "type": "function"
    }
  ],
  "bytecode": "0x608060405260405161059538038061059583398101604081905261002291610055565b60008054336001600160a01b031991821617909155600180549091166001600160a01b0392909216919091179055610083565b600060208284031215610066578081fd5b81516001600160a01b038116811461007c578182fd5b9392505050565b610503806100926000396000f3fe608060405234801561001057600080fd5b50600436106100415760003560e01c8063392aa3c31461004657806366d003ac1461005b57806367e404ce14610079575b600080fd5b6100596100543660046102d1565b610081565b005b610063610173565b60405161007091906103d1565b60405180910390f35b610063610182565b6001546001600160a01b031633146100b45760405162461bcd60e51b81526004016100ab90610403565b60405180910390fd5b6100be8282610191565b6100da5760405162461bcd60e51b81526004016100ab90610458565b8147116100f95760405162461bcd60e51b81526004016100ab9061042c565b6001546040516001600160a01b039091169083156108fc029084906000818181858888f19350505050158015610133573d6000803e3d6000fd5b50600080546040516001600160a01b03909116914780156108fc02929091818181858888f1935050505015801561016e573d6000803e3d6000fd5b505050565b6001546001600160a01b031681565b6000546001600160a01b031681565b6000806101c530856040516020016101aa92919061037e565b604051602081830303815290604052805190602001206101f0565b6000549091506001600160a01b03166101de8285610220565b6001600160a01b031614949350505050565b60008160405160200161020391906103a0565b604051602081830303815290604052805190602001209050919050565b60008060008061022f8561028f565b9250925092506001868484846040516000815260200160405260405161025894939291906103e5565b6020604051602081039080840390855afa15801561027a573d6000803e3d6000fd5b5050604051601f190151979650505050505050565b600080600083516041146102b55760405162461bcd60e51b81526004016100ab90610488565b5050506020810151604082015160609092015160001a92909190565b600080604083850312156102e3578182fd5b8235915060208084013567ffffffffffffffff80821115610302578384fd5b818601915086601f830112610315578384fd5b813581811115610327576103276104b7565b604051601f8201601f191681018501838111828210171561034a5761034a6104b7565b6040528181528382018501891015610360578586fd5b81858501868301378585838301015280955050505050509250929050565b60609290921b6bffffffffffffffffffffffff19168252601482015260340190565b7f19457468657265756d205369676e6564204d6573736167653a0a3332000000008152601c810191909152603c0190565b6001600160a01b0391909116815260200190565b93845260ff9290921660208401526040830152606082015260800190565b6020808252600f908201526e139bdd0818481c9958da5c1a595b9d608a1b604082015260600190565b602080825260129082015271496e73756666696369656e742046756e647360701b604082015260600190565b6020808252601690820152750a6d2cedccac840dacae6e6c2ceca40aadcdac2e8c6d60531b604082015260600190565b6020808252601590820152740a6d2cedccac840dacae6e6c2ceca40d8cadccee8d605b1b604082015260600190565b634e487b7160e01b600052604160045260246000fdfea264697066735822122071fd20a796f5c6ee89df24b903ae8483e1971e04ad479bcebb64f6c1b2d5667964736f6c63430008000033",
  "linkReferences": {},
  "deployedLinkReferences": {}
}