{
  "_format": "hh-sol-artifact-1",
  "contractName": "BlindAuction",
  "sourceName": "contracts/BlindAuction.sol",
  "abi": [
    {
      "inputs": [],
      "stateMutability": "nonpayable",
      "type": "constructor"
    },
    {
      "anonymous": false,
      "inputs": [
        {
          "indexed": false,
          "internalType": "address",
          "name": "winner",
          "type": "address"
        },
        {
          "indexed": false,
          "internalType": "uint256",
          "name": "highestBid",
          "type": "uint256"
        }
      ],
      "name": "AuctionEnded",
      "type": "event"
    },
    {
      "anonymous": false,
      "inputs": [],
      "name": "AuctionInit",
      "type": "event"
    },
    {
      "anonymous": false,
      "inputs": [],
      "name": "BiddingStarted",
      "type": "event"
    },
    {
      "anonymous": false,
      "inputs": [],
      "name": "RevealStarted",
      "type": "event"
    },
    {
      "inputs": [],
      "name": "advancePhase",
      "outputs": [],
      "stateMutability": "nonpayable",
      "type": "function"
    },
    {
      "inputs": [],
      "name": "auctionEnd",
      "outputs": [],
      "stateMutability": "nonpayable",
      "type": "function"
    },
    {
      "inputs": [],
      "name": "beneficiary",
      "outputs": [
        {
          "internalType": "address payable",
          "name": "",
          "type": "address"
        }
      ],
      "stateMutability": "view",
      "type": "function"
    },
    {
      "inputs": [
        {
          "internalType": "bytes32",
          "name": "blindBid",
          "type": "bytes32"
        }
      ],
      "name": "bid",
      "outputs": [],
      "stateMutability": "payable",
      "type": "function"
    },
    {
      "inputs": [
        {
          "internalType": "address",
          "name": "",
          "type": "address"
        }
      ],
      "name": "bids",
      "outputs": [
        {
          "internalType": "bytes32",
          "name": "blindedBid",
          "type": "bytes32"
        },
        {
          "internalType": "uint256",
          "name": "deposit",
          "type": "uint256"
        }
      ],
      "stateMutability": "view",
      "type": "function"
    },
    {
      "inputs": [],
      "name": "closeAuction",
      "outputs": [],
      "stateMutability": "nonpayable",
      "type": "function"
    },
    {
      "inputs": [],
      "name": "currentPhase",
      "outputs": [
        {
          "internalType": "enum BlindAuction.Phase",
          "name": "",
          "type": "uint8"
        }
      ],
      "stateMutability": "view",
      "type": "function"
    },
    {
      "inputs": [],
      "name": "highestBid",
      "outputs": [
        {
          "internalType": "uint256",
          "name": "",
          "type": "uint256"
        }
      ],
      "stateMutability": "view",
      "type": "function"
    },
    {
      "inputs": [],
      "name": "highestBidder",
      "outputs": [
        {
          "internalType": "address",
          "name": "",
          "type": "address"
        }
      ],
      "stateMutability": "view",
      "type": "function"
    },
    {
      "inputs": [
        {
          "internalType": "uint256",
          "name": "value",
          "type": "uint256"
        },
        {
          "internalType": "bytes32",
          "name": "secret",
          "type": "bytes32"
        }
      ],
      "name": "reveal",
      "outputs": [],
      "stateMutability": "nonpayable",
      "type": "function"
    },
    {
      "inputs": [],
      "name": "withdraw",
      "outputs": [],
      "stateMutability": "nonpayable",
      "type": "function"
    }
  ],
  "bytecode": "0x608060405260006002556005805460ff1916905534801561001f57600080fd5b50600080546001600160a01b03191633179055610a0d806100416000396000f3fe60806040526004361061009c5760003560e01c80634036778f116100645780634036778f1461012f57806362ea82db1461014f57806391f901571461017d578063957bb1e014610192578063be25a718146101a5578063d57bde79146101ba5761009c565b8063055ad42e146100a15780632a24f46c146100cc578063378252f2146100e357806338af3eed146100f85780633ccfd60b1461011a575b600080fd5b3480156100ad57600080fd5b506100b66101dc565b6040516100c391906108a2565b60405180910390f35b3480156100d857600080fd5b506100e16101e5565b005b3480156100ef57600080fd5b506100e16102c4565b34801561010457600080fd5b5061010d6102fc565b6040516100c39190610875565b34801561012657600080fd5b506100e161030b565b34801561013b57600080fd5b506100e161014a366004610846565b610361565b34801561015b57600080fd5b5061016f61016a366004610800565b6104be565b6040516100c3929190610867565b34801561018957600080fd5b5061010d6104d7565b6100e16101a036600461082e565b6104e6565b3480156101b157600080fd5b506100e1610588565b3480156101c657600080fd5b506101cf61077b565b6040516100c3919061096a565b60055460ff1681565b60038060055460ff16600381111561020d57634e487b7160e01b600052602160045260246000fd5b146102335760405162461bcd60e51b815260040161022a906108f3565b60405180910390fd5b600254471061027957600080546002546040516001600160a01b039092169281156108fc029290818181858888f19350505050158015610277573d6000803e3d6000fd5b505b6001546002546040517fdaec4582d5d9595688c8c98545fdd1c696d41c6aeaeb636737e84ed2f5c00eda926102b9926001600160a01b0390911691610889565b60405180910390a150565b6000546001600160a01b031633146102ee5760405162461bcd60e51b815260040161022a906108ca565b6000546001600160a01b0316ff5b6000546001600160a01b031681565b33600090815260046020526040902054801561035e57336000818152600460205260408082208290555183156108fc0291849190818181858888f1935050505015801561035c573d6000803e3d6000fd5b505b50565b60028060055460ff16600381111561038957634e487b7160e01b600052602160045260246000fd5b146103a65760405162461bcd60e51b815260040161022a906108f3565b6000546001600160a01b03163314156103d15760405162461bcd60e51b815260040161022a9061093f565b336000908152600360209081526040808320905190916103f5918791879101610867565b60405160208183030381529060405280519060200120816000015414156104825760018101546104259083610973565b915061043985670de0b6b3a764000061098b565b8160010154106104825761045e3361045987670de0b6b3a764000061098b565b610781565b156104825761047585670de0b6b3a764000061098b565b61047f90836109aa565b91505b81156104b757604051339083156108fc029084906000818181858888f193505050501580156104b5573d6000803e3d6000fd5b505b5050505050565b6003602052600090815260409020805460019091015482565b6001546001600160a01b031681565b60018060055460ff16600381111561050e57634e487b7160e01b600052602160045260246000fd5b1461052b5760405162461bcd60e51b815260040161022a906108f3565b6000546001600160a01b03163314156105565760405162461bcd60e51b815260040161022a90610917565b506040805180820182529182523460208084019182523360009081526003909152919091209151825551600190910155565b6000546001600160a01b031633146105b25760405162461bcd60e51b815260040161022a906108ca565b600360055460ff1660038111156105d957634e487b7160e01b600052602160045260246000fd5b14156105ee576005805460ff19169055610674565b60055460009060ff16600381111561061657634e487b7160e01b600052602160045260246000fd5b610621906001610973565b905080600381111561064357634e487b7160e01b600052602160045260246000fd5b6005805460ff1916600183600381111561066d57634e487b7160e01b600052602160045260246000fd5b0217905550505b600260055460ff16600381111561069b57634e487b7160e01b600052602160045260246000fd5b14156106cb576040517f3bcc93d35219aa0512d7c0d1ca10b0231f473e3d5f9396877d1b7215ee0ab3d590600090a15b600160055460ff1660038111156106f257634e487b7160e01b600052602160045260246000fd5b1415610722576040517f02c124e22ee7da1c9905bbb317cf67658c1cc3ea1c0953b1633f85d0b5c281d990600090a15b600060055460ff16600381111561074957634e487b7160e01b600052602160045260246000fd5b1415610779576040517f8ad2842071cb64589c8e006941bc20b615aae08a93530e211ca7c9639bd26d9790600090a15b565b60025481565b60006002548211610794575060006107fa565b6001546001600160a01b0316156107d8576002546001546001600160a01b0316600090815260046020526040812080549091906107d2908490610973565b90915550505b506002819055600180546001600160a01b0319166001600160a01b0384161781555b92915050565b600060208284031215610811578081fd5b81356001600160a01b0381168114610827578182fd5b9392505050565b60006020828403121561083f578081fd5b5035919050565b60008060408385031215610858578081fd5b50508035926020909101359150565b918252602082015260400190565b6001600160a01b0391909116815260200190565b6001600160a01b03929092168252602082015260400190565b60208101600483106108c457634e487b7160e01b600052602160045260246000fd5b91905290565b6020808252600f908201526e6f6e6c7942656e656669636961727960881b604082015260600190565b6020808252600a9082015269383430b9b2a2b93937b960b11b604082015260600190565b6020808252600e908201526d18995b99599a58da585c9e509a5960921b604082015260600190565b60208082526011908201527018995b99599a58da585c9e54995d99585b607a1b604082015260600190565b90815260200190565b60008219821115610986576109866109c1565b500190565b60008160001904831182151516156109a5576109a56109c1565b500290565b6000828210156109bc576109bc6109c1565b500390565b634e487b7160e01b600052601160045260246000fdfea26469706673582212204b6761fe5119617ebca61790721bd5e0dc0aaf2d14c881bd5a165a2b10265c5d64736f6c63430008000033",
  "linkReferences": {},
  "deployedLinkReferences": {}
}