{
  "_format": "hh-sol-artifact-1",
  "contractName": "BlindAuction",
  "sourceName": "contracts/BlindAuction.sol",
  "abi": [
    {
      "inputs": [],
      "stateMutability": "nonpayable",
      "type": "constructor"
    },
    {
      "anonymous": false,
      "inputs": [
        {
          "indexed": false,
          "internalType": "address",
          "name": "winner",
          "type": "address"
        },
        {
          "indexed": false,
          "internalType": "uint256",
          "name": "highestBid",
          "type": "uint256"
        }
      ],
      "name": "AuctionEnded",
      "type": "event"
    },
    {
      "anonymous": false,
      "inputs": [],
      "name": "AuctionInit",
      "type": "event"
    },
    {
      "anonymous": false,
      "inputs": [],
      "name": "BiddingStarted",
      "type": "event"
    },
    {
      "anonymous": false,
      "inputs": [],
      "name": "RevealStarted",
      "type": "event"
    },
    {
      "inputs": [],
      "name": "advancePhase",
      "outputs": [],
      "stateMutability": "nonpayable",
      "type": "function"
    },
    {
      "inputs": [],
      "name": "auctionEnd",
      "outputs": [],
      "stateMutability": "nonpayable",
      "type": "function"
    },
    {
      "inputs": [],
      "name": "beneficiary",
      "outputs": [
        {
          "internalType": "address payable",
          "name": "",
          "type": "address"
        }
      ],
      "stateMutability": "view",
      "type": "function"
    },
    {
      "inputs": [
        {
          "internalType": "bytes32",
          "name": "blindBid",
          "type": "bytes32"
        }
      ],
      "name": "bid",
      "outputs": [],
      "stateMutability": "payable",
      "type": "function"
    },
    {
      "inputs": [
        {
          "internalType": "address",
          "name": "",
          "type": "address"
        }
      ],
      "name": "bids",
      "outputs": [
        {
          "internalType": "bytes32",
          "name": "blindedBid",
          "type": "bytes32"
        },
        {
          "internalType": "uint256",
          "name": "deposit",
          "type": "uint256"
        }
      ],
      "stateMutability": "view",
      "type": "function"
    },
    {
      "inputs": [],
      "name": "closeAuction",
      "outputs": [],
      "stateMutability": "nonpayable",
      "type": "function"
    },
    {
      "inputs": [],
      "name": "currentPhase",
      "outputs": [
        {
          "internalType": "enum BlindAuction.Phase",
          "name": "",
          "type": "uint8"
        }
      ],
      "stateMutability": "view",
      "type": "function"
    },
    {
      "inputs": [],
      "name": "highestBid",
      "outputs": [
        {
          "internalType": "uint256",
          "name": "",
          "type": "uint256"
        }
      ],
      "stateMutability": "view",
      "type": "function"
    },
    {
      "inputs": [],
      "name": "highestBidder",
      "outputs": [
        {
          "internalType": "address",
          "name": "",
          "type": "address"
        }
      ],
      "stateMutability": "view",
      "type": "function"
    },
    {
      "inputs": [
        {
          "internalType": "uint256",
          "name": "value",
          "type": "uint256"
        },
        {
          "internalType": "bytes32",
          "name": "secret",
          "type": "bytes32"
        }
      ],
      "name": "reveal",
      "outputs": [],
      "stateMutability": "nonpayable",
      "type": "function"
    },
    {
      "inputs": [],
      "name": "withdraw",
      "outputs": [],
      "stateMutability": "nonpayable",
      "type": "function"
    }
  ],
  "bytecode": "0x608060405260006002556000600560006101000a81548160ff0219169083600381111561002f5761002e610086565b5b021790555034801561004057600080fd5b50336000806101000a81548173ffffffffffffffffffffffffffffffffffffffff021916908373ffffffffffffffffffffffffffffffffffffffff1602179055506100b5565b7f4e487b7100000000000000000000000000000000000000000000000000000000600052602160045260246000fd5b611363806100c46000396000f3fe60806040526004361061009c5760003560e01c80634036778f116100645780634036778f1461013c57806362ea82db1461016557806391f90157146101a3578063957bb1e0146101ce578063be25a718146101ea578063d57bde79146102015761009c565b8063055ad42e146100a15780632a24f46c146100cc578063378252f2146100e357806338af3eed146100fa5780633ccfd60b14610125575b600080fd5b3480156100ad57600080fd5b506100b661022c565b6040516100c39190610db0565b60405180910390f35b3480156100d857600080fd5b506100e161023f565b005b3480156100ef57600080fd5b506100f8610389565b005b34801561010657600080fd5b5061010f610450565b60405161011c9190610e0c565b60405180910390f35b34801561013157600080fd5b5061013a610474565b005b34801561014857600080fd5b50610163600480360381019061015e9190610e98565b610551565b005b34801561017157600080fd5b5061018c60048036038101906101879190610f16565b61079b565b60405161019a929190610f61565b60405180910390f35b3480156101af57600080fd5b506101b86107bf565b6040516101c59190610f99565b60405180910390f35b6101e860048036038101906101e39190610fb4565b6107e5565b005b3480156101f657600080fd5b506101ff610959565b005b34801561020d57600080fd5b50610216610bfb565b6040516102239190610fe1565b60405180910390f35b600560009054906101000a900460ff1681565b600380600381111561025457610253610d39565b5b600560009054906101000a900460ff16600381111561027657610275610d39565b5b146102b6576040517f08c379a00000000000000000000000000000000000000000000000000000000081526004016102ad90611059565b60405180910390fd5b60025447106103295760008054906101000a900473ffffffffffffffffffffffffffffffffffffffff1673ffffffffffffffffffffffffffffffffffffffff166108fc6002549081150290604051600060405180830381858888f19350505050158015610327573d6000803e3d6000fd5b505b7fdaec4582d5d9595688c8c98545fdd1c696d41c6aeaeb636737e84ed2f5c00eda600160009054906101000a900473ffffffffffffffffffffffffffffffffffffffff1660025460405161037e929190611079565b60405180910390a150565b60008054906101000a900473ffffffffffffffffffffffffffffffffffffffff1673ffffffffffffffffffffffffffffffffffffffff163373ffffffffffffffffffffffffffffffffffffffff1614610417576040517f08c379a000000000000000000000000000000000000000000000000000000000815260040161040e906110ee565b60405180910390fd5b60008054906101000a900473ffffffffffffffffffffffffffffffffffffffff1673ffffffffffffffffffffffffffffffffffffffff16ff5b60008054906101000a900473ffffffffffffffffffffffffffffffffffffffff1681565b6000600460003373ffffffffffffffffffffffffffffffffffffffff1673ffffffffffffffffffffffffffffffffffffffff168152602001908152602001600020549050600081111561054e576000600460003373ffffffffffffffffffffffffffffffffffffffff1673ffffffffffffffffffffffffffffffffffffffff168152602001908152602001600020819055503373ffffffffffffffffffffffffffffffffffffffff166108fc829081150290604051600060405180830381858888f1935050505015801561054c573d6000803e3d6000fd5b505b50565b600280600381111561056657610565610d39565b5b600560009054906101000a900460ff16600381111561058857610587610d39565b5b146105c8576040517f08c379a00000000000000000000000000000000000000000000000000000000081526004016105bf90611059565b60405180910390fd5b60008054906101000a900473ffffffffffffffffffffffffffffffffffffffff1673ffffffffffffffffffffffffffffffffffffffff163373ffffffffffffffffffffffffffffffffffffffff1603610656576040517f08c379a000000000000000000000000000000000000000000000000000000000815260040161064d9061115a565b60405180910390fd5b600080600360003373ffffffffffffffffffffffffffffffffffffffff1673ffffffffffffffffffffffffffffffffffffffff168152602001908152602001600020905084846040516020016106ad9291906111bc565b60405160208183030381529060405280519060200120816000015403610743578060010154826106dd9190611217565b9150670de0b6b3a7640000856106f3919061124b565b8160010154106107425761071a33670de0b6b3a764000087610715919061124b565b610c01565b1561074157670de0b6b3a764000085610733919061124b565b8261073e919061128d565b91505b5b5b6000821115610794573373ffffffffffffffffffffffffffffffffffffffff166108fc839081150290604051600060405180830381858888f19350505050158015610792573d6000803e3d6000fd5b505b5050505050565b60036020528060005260406000206000915090508060000154908060010154905082565b600160009054906101000a900473ffffffffffffffffffffffffffffffffffffffff1681565b60018060038111156107fa576107f9610d39565b5b600560009054906101000a900460ff16600381111561081c5761081b610d39565b5b1461085c576040517f08c379a000000000000000000000000000000000000000000000000000000000815260040161085390611059565b60405180910390fd5b60008054906101000a900473ffffffffffffffffffffffffffffffffffffffff1673ffffffffffffffffffffffffffffffffffffffff163373ffffffffffffffffffffffffffffffffffffffff16036108ea576040517f08c379a00000000000000000000000000000000000000000000000000000000081526004016108e19061130d565b60405180910390fd5b604051806040016040528083815260200134815250600360003373ffffffffffffffffffffffffffffffffffffffff1673ffffffffffffffffffffffffffffffffffffffff16815260200190815260200160002060008201518160000155602082015181600101559050505050565b60008054906101000a900473ffffffffffffffffffffffffffffffffffffffff1673ffffffffffffffffffffffffffffffffffffffff163373ffffffffffffffffffffffffffffffffffffffff16146109e7576040517f08c379a00000000000000000000000000000000000000000000000000000000081526004016109de906110ee565b60405180910390fd5b6003808111156109fa576109f9610d39565b5b600560009054906101000a900460ff166003811115610a1c57610a1b610d39565b5b03610a51576000600560006101000a81548160ff02191690836003811115610a4757610a46610d39565b5b0217905550610ac1565b60006001600560009054906101000a900460ff166003811115610a7757610a76610d39565b5b610a819190611217565b9050806003811115610a9657610a95610d39565b5b600560006101000a81548160ff02191690836003811115610aba57610ab9610d39565b5b0217905550505b60026003811115610ad557610ad4610d39565b5b600560009054906101000a900460ff166003811115610af757610af6610d39565b5b03610b29577f3bcc93d35219aa0512d7c0d1ca10b0231f473e3d5f9396877d1b7215ee0ab3d560405160405180910390a15b60016003811115610b3d57610b3c610d39565b5b600560009054906101000a900460ff166003811115610b5f57610b5e610d39565b5b03610b91577f02c124e22ee7da1c9905bbb317cf67658c1cc3ea1c0953b1633f85d0b5c281d960405160405180910390a15b60006003811115610ba557610ba4610d39565b5b600560009054906101000a900460ff166003811115610bc757610bc6610d39565b5b03610bf9577f8ad2842071cb64589c8e006941bc20b615aae08a93530e211ca7c9639bd26d9760405160405180910390a15b565b60025481565b60006002548211610c155760009050610d33565b600073ffffffffffffffffffffffffffffffffffffffff16600160009054906101000a900473ffffffffffffffffffffffffffffffffffffffff1673ffffffffffffffffffffffffffffffffffffffff1614610ce65760025460046000600160009054906101000a900473ffffffffffffffffffffffffffffffffffffffff1673ffffffffffffffffffffffffffffffffffffffff1673ffffffffffffffffffffffffffffffffffffffff1681526020019081526020016000206000828254610cde9190611217565b925050819055505b8160028190555082600160006101000a81548173ffffffffffffffffffffffffffffffffffffffff021916908373ffffffffffffffffffffffffffffffffffffffff160217905550600190505b92915050565b7f4e487b7100000000000000000000000000000000000000000000000000000000600052602160045260246000fd5b60048110610d7957610d78610d39565b5b50565b6000819050610d8a82610d68565b919050565b6000610d9a82610d7c565b9050919050565b610daa81610d8f565b82525050565b6000602082019050610dc56000830184610da1565b92915050565b600073ffffffffffffffffffffffffffffffffffffffff82169050919050565b6000610df682610dcb565b9050919050565b610e0681610deb565b82525050565b6000602082019050610e216000830184610dfd565b92915050565b600080fd5b6000819050919050565b610e3f81610e2c565b8114610e4a57600080fd5b50565b600081359050610e5c81610e36565b92915050565b6000819050919050565b610e7581610e62565b8114610e8057600080fd5b50565b600081359050610e9281610e6c565b92915050565b60008060408385031215610eaf57610eae610e27565b5b6000610ebd85828601610e4d565b9250506020610ece85828601610e83565b9150509250929050565b6000610ee382610dcb565b9050919050565b610ef381610ed8565b8114610efe57600080fd5b50565b600081359050610f1081610eea565b92915050565b600060208284031215610f2c57610f2b610e27565b5b6000610f3a84828501610f01565b91505092915050565b610f4c81610e62565b82525050565b610f5b81610e2c565b82525050565b6000604082019050610f766000830185610f43565b610f836020830184610f52565b9392505050565b610f9381610ed8565b82525050565b6000602082019050610fae6000830184610f8a565b92915050565b600060208284031215610fca57610fc9610e27565b5b6000610fd884828501610e83565b91505092915050565b6000602082019050610ff66000830184610f52565b92915050565b600082825260208201905092915050565b7f70686173654572726f7200000000000000000000000000000000000000000000600082015250565b6000611043600a83610ffc565b915061104e8261100d565b602082019050919050565b6000602082019050818103600083015261107281611036565b9050919050565b600060408201905061108e6000830185610f8a565b61109b6020830184610f52565b9392505050565b7f6f6e6c7942656e65666963696172790000000000000000000000000000000000600082015250565b60006110d8600f83610ffc565b91506110e3826110a2565b602082019050919050565b60006020820190508181036000830152611107816110cb565b9050919050565b7f62656e656669636961727952657665616c000000000000000000000000000000600082015250565b6000611144601183610ffc565b915061114f8261110e565b602082019050919050565b6000602082019050818103600083015261117381611137565b9050919050565b6000819050919050565b61119561119082610e2c565b61117a565b82525050565b6000819050919050565b6111b66111b182610e62565b61119b565b82525050565b60006111c88285611184565b6020820191506111d882846111a5565b6020820191508190509392505050565b7f4e487b7100000000000000000000000000000000000000000000000000000000600052601160045260246000fd5b600061122282610e2c565b915061122d83610e2c565b9250828201905080821115611245576112446111e8565b5b92915050565b600061125682610e2c565b915061126183610e2c565b925082820261126f81610e2c565b91508282048414831517611286576112856111e8565b5b5092915050565b600061129882610e2c565b91506112a383610e2c565b92508282039050818111156112bb576112ba6111e8565b5b92915050565b7f62656e6566696369617279426964000000000000000000000000000000000000600082015250565b60006112f7600e83610ffc565b9150611302826112c1565b602082019050919050565b60006020820190508181036000830152611326816112ea565b905091905056fea2646970667358221220cfc49fcc248b041ac8509c66348db26b52cdea1591bb14fb0be3e9760963e56a64736f6c63430008140033",
  "linkReferences": {},
  "deployedLinkReferences": {}
}